:020000040000FA
:100000008A110A1208280000000000000000000009
:10001000283084005830A0008001840AA00B0C28EE
:10002000103095002730960000308E0000308F0091
:10003000013090000B30970007309F0000308500A2
:100040008316FF30850083120030860083160F3040
:10005000860083120C1D2A280C116400A914A9180B
:100060002915A91C2911A91D36282911291A3C284E
:100070003130AA000030AB0029162919542800306D
:100080002B0203194A28A00020092B05A006A01B5B
:100090004F28532831302A02031C4F285328AA0F17
:1000A0005228AB0A291558280030AA000030AB00AE
:1000B000291D6F2800302D0203196528A000200992
:1000C0002D05A006A01B6A286E2831302C02031CC7
:1000D0006A286E28AC0F6D28AD0A291173280030EC
:1000E000AC000030AD002919A915291DA911A918C6
:1000F0002915A91C2911A9197E282911291D9A2819
:10010000A91A9A28AE0F8528AF0A00302F020319CA
:100110009028A00020092F05A006A01B952896284E
:1001200004302E02031C952896289A280030AE0031
:100130000030AF002919A916291DA912A9182915DF
:10014000A91C29110030B0000030B1002E08300287
:10015000031DAF282F083102031DAF28B028291135
:10016000291DB4280612B5280616A9182915A91C98
:1001700029110130B0000030B1002E083002031DFB
:10018000C6282F083102031DC628C7282911291D9A
:10019000CB288612CC288616A9182915A91C291146
:1001A0000230B0000030B1002E083002031DDD28FF
:1001B0002F083102031DDD28DE282911291DE22820
:1001C0000613E3280617A9182915A91C29110330BD
:1001D000B0000030B1002E083002031DF4282F08B3
:1001E0003102031DF428F5282911291DF928861349
:0801F000FA2886178A012A286B
:02400E00623F0F
:00000001FF
