:020000040000FA
:100000008A110A1208280000000000000000000009
:10001000283084005830A0008001840AA00B0C28EE
:10002000103095002730960000308E0000308F0091
:10003000013090000B30970007309F0000308500A2
:100040008316FF3085008312003086008316EF3060
:10005000860083120C1D2A280C116400A914A9180B
:100060002915A91C2911061E36282911A9193C2871
:100070003130AA000030AB00A915291954280030EE
:100080002B0203194A28A00020092B05A006A01B5B
:100090004F28532831302A02031C4F285328AA0F17
:1000A0005228AB0A291558280030AA000030AB00AE
:1000B000291D6F2800302D0203196528A000200992
:1000C0002D05A006A01B6A286E2831302C02031CC7
:1000D0006A286E28AC0F6D28AD0A291173280030EC
:1000E000AC000030AD0029190616291D06128A0140
:0200F0002A28BC
:02400E00623F0F
:00000001FF
