:020000040000FA
:100000008A110A1208280000000000000000000009
:10001000283084005830A0008001840AA00B0C28EE
:1000200050309500C330960000308E0000308F00B5
:10003000013090000B309700831686309F008312AA
:10004000003085008316FF30850083120030860063
:100050008316FF3086008312003087008316C3307A
:10006000870083120C1D32280C116400A914A918F2
:100070002915A91C291106183E2829112919A91585
:10008000291DA911291E45282911A9192916A91DBB
:100090002912291D6528A91A6528AA0F5028AB0A1C
:1000A00000302B0203195B28A00020092B05A006B5
:1000B000A01B6028612802302A02031C60286128E6
:1000C00065280030AA000030AB002919A916291DA7
:1000D000A912A9182915A91C2911861870282911F7
:1000E0002919A915291DA911291F77282911A9192D
:1000F0002917A91D2913291D9728A91B9728AC0F7B
:100100008228AD0A00302D0203198D28A000200995
:100110002D05A006A01B9228932802302C02031C58
:100120009228932897280030AC000030AD002919A0
:10013000A917291DA913A9182915A91C29110619E0
:10014000A22829112919A915291DA9112E1CA92890
:100150002911A9192E14A91D2E10291DC928AE1860
:10016000C928AF0FB428B00A003030020319BF28E5
:10017000A00020093005A006A01BC428C528023015
:100180002F02031CC428C528C9280030AF00003046
:10019000B0002919AE14291DAE10A9182915A91CE3
:1001A00029118619D42829112919A915291DA91140
:1001B0002E1DDB282911A9192E15A91D2E11291D67
:1001C000FB28AE19FB28B10FE628B20A0030320234
:1001D0000319F128A00020093205A006A01BF6286B
:1001E000F72802303102031CF628F728FB280030DC
:1001F000B1000030B2002919AE15291DAE11A918A1
:100200002915A91C2911061A062929112919A91528
:10021000291DA9112E1E0D292911A9192E16A91D56
:100220002E12291D2D29AE1A2D29B30F1829B40A13
:100230000030340203192329A00020093405A00648
:10024000A01B2829292902303302031C2829292927
:100250002D290030B3000030B4002919AE16291D35
:10026000AE12A9182915A91C29110130B5000030BA
:10027000B60033083502031D422934083602031D37
:100280004229432929112919A915291DA9112E1F10
:100290004A292911A9192E17A91D2E13AE132919A0
:1002A0003714291D3710371C59290130AA00003096
:1002B000AB00371C5C29AE1729193714291D3710DC
:1002C000371C66290130AC000030AD00371C6929AD
:1002D000AE1729193714291D3710371C732901301F
:1002E000AF000030B000371C7629AE17291937143B
:1002F000291D3710371C80290130B1000030B200B1
:10030000371C8329AE17AE1B2915AE1F2911A9185A
:100310002915A91C29110030B5000030B60033089A
:100320003502031D982934083602031D982999299E
:1003300029112919A915291DA911B71CA0292911AD
:10034000A919B714A91DB71037112919B715291DF7
:10035000B711B71DAF290030AA000030AB00B71DA0
:10036000B22937152919B715291DB711B71DBC2991
:100370000030AC000030AD00B71DBF29371529197A
:10038000B715291DB711B71DC9290030AF000030BE
:10039000B000B71DCC2937152919B715291DB7117C
:1003A000B71DD6290030B1000030B200B71DD929E1
:1003B000371537192915371D2911A9182915A91C11
:1003C00029110130B5000030B6002A083502031D9E
:1003D000EE292B083602031DEE29EF2929112919D0
:1003E0008716291D8712A9182915A91C2911013062
:1003F000B5000030B6002C083502031D042A2D0874
:100400003602031D042A052A291129190716291D58
:100410000712A9182915A91C29110130B5000030AF
:10042000B6002F083502031D1A2A30083602031DB4
:100430001A2A1B2A291129198715291D8711A9187C
:100440002915A91C29110130B5000030B60031086A
:100450003502031D302A32083602031D302A312AA4
:0E046000291129190715291D07118A013228B3
:02400E00723FFF
:00000001FF
