:020000040000FA
:100000008A110A1208280000000000000000000009
:10001000283084005830A0008001840AA00B0C28EE
:1000200050309500C330960000308E0000308F00B5
:10003000013090000B309700831686309F008312AA
:10004000003085008316FF30850083120030860063
:100050008316FF3086008312003087008316C3307A
:10006000870083120C1D32280C116400A914A918F2
:100070002915A91C291106183E2829112919A91585
:10008000291DA911291E45282911A9192916A91DBB
:100090002912A91A4F28E730AA000330AB00A9168D
:1000A0002919672803302B0203195D28A0002009B5
:1000B0002B05A006A01B62286628E7302A02031C35
:1000C00062286628AA0F6528AB0A29156B2800301C
:1000D000AA000030AB0029198716291D8712A9181C
:1000E0002915A91C29118618762829112919A9155D
:1000F000291DA911291F7D282911A9192917A91D11
:100100002913A91B8728E730AC000330AD00A917DD
:1001100029199F2803302D0203199528A0002009D2
:100120002D05A006A01B9A289E28E7302C02031C50
:100130009A289E28AC0F9D28AD0A2915A3280030C7
:10014000AC000030AD0029190716291D0712A918A7
:100150002915A91C29110619AE2829112919A91533
:10016000291DA9112E1CB5282911A9192E14A91D64
:100170002E10AE18BF28E730AF000330B000AE1429
:100180002919D728033030020319CD28A0002009EF
:100190003005A006A01BD228D628E7302F02031C6A
:1001A000D228D628AF0FD528B00A2915DB28003071
:1001B000AF000030B00029198715291D8711A91833
:1001C0002915A91C29118619E62829112919A9150B
:1001D000291DA9112E1DED282911A9192E15A91DBA
:1001E0002E11AE19F728E730B1000330B200AE157A
:1001F00029190F290330320203190529A00020090B
:100200003205A006A01B0A290E29E7303102031C83
:100210000A290E29B10F0D29B20A29151329003018
:10022000B1000030B20029190715291D07118A01F4
:02023000322872
:02400E00723FFF
:00000001FF
