:020000040000FA
:100000008A110A1208280000000000000000000009
:10001000283084005830A0008001840AA00B0C28EE
:10002000103095002730960000308E0000308F0091
:10003000013090000B30970007309F0000308500A2
:100040008316FF3085008312003086008316FD3052
:10005000860083120C1D2A280C116400A914A9180B
:100060002915A91C2911061C36282911291D4D28DE
:1000700000302B0203194328A00020092B05A006FD
:10008000A01B48284C2863302A02031C48284C280F
:10009000AA0F4B28AB0A291151280030AA000030C2
:0E00A000AB0029198614291D86108A012A2812
:02400E00623F0F
:00000001FF
