:020000040000FA
:100000008A110A1208280000000000000000000009
:10001000283084005830A0008001840AA00B0C28EE
:10002000103095002730960000308E0000308F0091
:10003000013090000B30970007309F0000308500A2
:100040008316FF30850083120030860083160F3040
:10005000860083128316193099008312831620308C
:1000600098008312903098000C1D34280C11640005
:10007000A914A9182915A91C2911291D4F282911CE
:100080008C1E4F281A08AA00AB01291598184B2876
:1000900018194B284F281A081A0818121816291967
:1000A000A915291DA911A9182915A91C2911413023
:1000B000AC000030AD002A082C02031D64282B0878
:1000C0002D02031D642865282911291D682806169C
:1000D000A9182915A91C29114230AC000030AD0027
:1000E0002A082C02031D79282B082D02031D7928CC
:1000F0007A282911291D7D280612A9182915A91C5D
:1001000029114330AC000030AD002A082C02031D39
:100110008E282B082D02031D8E288F282911291DBA
:1001200092288616A9182915A91C29114430AC005B
:100130000030AD002A082C02031DA3282B082D0235
:10014000031DA328A4282911291DA7288612A91850
:100150002915A91C29114530AC000030AD002A0832
:100160002C02031DB8282B082D02031DB828B9281E
:100170002911291DBC280617A9182915A91C291100
:100180004630AC000030AD002A082C02031DCD28FB
:100190002B082D02031DCD28CE282911291DD12879
:1001A0000613A9182915A91C29114730AC000030E5
:1001B000AD002A082C02031DE2282B082D02031D86
:1001C000E228E3282911291DE6288617A9182915F0
:1001D000A91C29114830AC000030AD002A082C02BF
:1001E000031DF7282B082D02031DF728F8282911D5
:1001F000291DFB288613A9182915A91C2911A9193D
:100200000229291129192916291D2912A91E09298E
:100210002911291AA916291EA912291D1529291BD8
:1002200015290030AE000030AF0029192917291D0B
:1002300029132E08B0002F08B10000302F02031937
:100240002829A00020092F05A006A01B2D292E2952
:100250000C302E02031C2D292E293229FF30B0002C
:10026000FF30B1002912291E3729320899002912BE
:10027000831698183D29831229168312291E4429B2
:10028000FF30B000FF30B1000030B2000030B300EA
:1002900032083002031D542933083102031D54294A
:1002A0007630AC000030AD000130B2000030B30059
:1002B00032083002031D642933083102031D64290A
:1002C0006130AC000030AD000230B2000030B3004D
:1002D00032083002031D742933083102031D7429CA
:1002E0006C30AC000030AD000330B2000030B30021
:1002F00032083002031D842933083102031D84298A
:100300007530AC000030AD000430B2000030B300F6
:1003100032083002031D942933083102031D942949
:100320006530AC000030AD000530B2000030B300E5
:1003300032083002031DA42933083102031DA42909
:100340003A30AC000030AD000630B2000030B300EF
:1003500032083002031DB42933083102031DB429C9
:100360002030AC000030AD000730B2000030B300E8
:10037000291232083002031DC22933083102031D3D
:10038000C2292916291E152A2A08B4002B08B500EF
:10039000A9176430B2000030B3003408A00035085B
:1003A000A1003208A2003308A30003308A002823EA
:1003B00001308A002008AC002108AD003208A000FE
:1003C0003308A1002C08A2002D08A30003308A00E6
:1003D000112301308A002208B2002308B30032083A
:1003E0003402B4003508B500031CB5033308B50268
:1003F0003030B2000030B3002C083207AC002D08BA
:10040000AD000318AD0A3308AD0732082C02031DF6
:10041000142A33082D02031D142AA91F132A203081
:10042000AC000030AD00152AA9130830B20000302E
:10043000B300291232083002031D232A3308310287
:10044000031D232A2916291E712A0A30B200003002
:10045000B3003408A0003508A1003208A200330818
:10046000A30003308A00282302308A002008AC0051
:100470002108AD003208A0003308A1002C08A2001A
:100480002D08A30003308A00112302308A002208BD
:10049000B2002308B30032083402B4003508B500B6
:1004A000031CB5033308B5023030B2000030B3008E
:1004B0002C083207AC002D08AD000318AD0A330834
:1004C000AD0732082C02031D702A33082D02031DCC
:1004D000702AA91F6F2A2030AC000030AD00712AAD
:1004E000A9130930B2000030B300291232083002DB
:1004F000031D7F2A33083102031D7F2A2916291E76
:10050000BD2A0130B2000030B3003408A000350825
:10051000A1003208A2003308A30003308A00282378
:1005200002308A002008AC002108AD003208A0008B
:100530003308A1002C08A2002D08A30003308A0074
:10054000112302308A002208B2002308B3003208C7
:100550003402B4003508B500031CB5033308B502F6
:100560003030B2000030B3002C083207AC002D0848
:10057000AD000318AD0A3308AD070A30B2000030F1
:10058000B30032083002031DCD2A33083102031DA7
:10059000CD2A0D30AC000030AD000B30B200003081
:1005A000B30032083002031DDD2A33083102031D77
:1005B000DD2A0A30AC000030AD00003031020319F2
:1005C000E82AA00020093105A006A01BED2AEE2A8A
:1005D00000303002031CED2AEE2AFD2A2916291EBE
:1005E000F32A2C089900291283169818F92A8312E5
:1005F00029168312AE0FFD2AAF0A291100302F02EF
:100600000319092BA00020092F05A006A01B0E2B03
:100610000F2B0C302E02031C0E2B0F2B29158A01D9
:100620003428A501A4010310A30CA20C1030A600CD
:10063000031C202B2008A4070318A50A2108A507DE
:100640000310A50CA40CA30CA20CA60B182B0800DD
:1006500021082306A700A31F322BA209A309A20A7F
:100660000319A30AA11F392BA009A109A00A031984
:10067000A10AA501A40103101130A600A00DA10D2F
:10068000A6030319572BA40DA50D2208A402031CD1
:10069000A5032308A502A51F552B2208A4070318AC
:1006A000A50A2308A50703103E2B03143E2BA71F02
:0E06B0000800A009A109A00A0319A10A080068
:02400E00623F0F
:00000001FF
