:020000040000FA
:100000008A110A1208280000000000000000000009
:10001000283084005830A0008001840AA00B0C28EE
:1000200050309500C330960000308E0000308F00B5
:10003000013090000B30970007309F0000308500A2
:100040008316FF30850083120030860083160F3040
:10005000860083120C1D2A280C116400A914A9180B
:100060002915A91C2911061836282911861C39289A
:1000700029112919A915291DA911291E402829115D
:10008000A9192916A91D2912A91229192917291DEB
:100090002913291F4C28A917291F4F28A9162919E8
:1000A0002917291D2913291F56282A10291F5928C5
:1000B000A916A91A2915A91E2911A9182915A91CBB
:1000C00029110619642829112919A915291DA91111
:1000D000AA1C6B282911A919AA14A91DAA102A1152
:1000E0002919AA15291DAA11AA1D7728A913AA1D25
:1000F0007A282A152919AA15291DAA11AA1D8128AD
:100100002A10AA1D84282A152A1929152A1D291101
:10011000A9182915A91C2911A91B8F282911861C8A
:10012000922829112A1C9528291129192A16291DD6
:100130002A12A9182915A91C2911A91BA0282911BF
:100140008618A3282911291DA6282A14A9182915BB
:10015000A91C29112A18AD282911291DC4280230EB
:100160002C020319BA28A00020092C05A006A01B08
:10017000BF28C32857302B02031CBF28C328AB0F4E
:10018000C228AC0A2911C8280030AB000030AC00EE
:100190002919AA16291DAA12A9182915A91C29115D
:1001A0002A1AD3282911AA1ED62829112A13291957
:1001B000AA17291DAA13AA1B0616AA1F0612AA1FF0
:1001C000E2282A172919AA17291DAA13AA1B86177C
:1001D000AA1F8613AA1FED282A172A1B29152A1FD2
:1001E0002911A9182915A91C2911AA1AF8282911B9
:1001F0002A1EFB2829112D102919AD14291DAD1017
:10020000AD188616AD1C8612AD1C07292D142919B0
:10021000AD14291DAD10AD180617AD1C0613AD1C8D
:1002200012292D142D1829152D1C29118A012A286F
:02400E00623F0F
:00000001FF
