:020000040000FA
:100000008A110A1208280000000000000000000009
:10001000283084005830A0008001840AA00B0C28EE
:10002000103095002730960000308E0000308F0091
:10003000013090000B309700831686309F008312AA
:10004000003085008316FF30850083120030860063
:1000500083160F30860083120C1D2C280C116400AF
:10006000A914A9182915A91C2911A911291929169A
:10007000291D2912A912291A2917291E2913061820
:1000800042282913291F4528A916291A2917291E8C
:100090002913A91B4C282913291F4F28A916A91A6F
:1000A0002916A91E2912861C56282912291AA917B1
:1000B000291EA913291E5D28A91529192916291DEC
:1000C0002912A91F64282912061D67282912A91FB1
:1000D0006A282912291E812800302B02031977284B
:1000E000A00020092B05A006A01B7C288028C73073
:1000F0002A02031C7C288028AA0F7F28AB0A291219
:1001000085280030AA000030AB00291A2C14291EC3
:100110002C10291E8C28A915A9192915A91D2911EA
:10012000A9182915A91C2911A91B972829112C1CCC
:100130009A282911AC1029192C15291D2C112C19BC
:1001400006162C1D06122C1DA628AC1429192C15D8
:10015000291D2C112C1986172C1D86132C1DB12836
:10016000AC14AC182915AC1C2911A9182915A91C07
:100170002911A91FBC2829112C18BF282911AC113D
:1001800029192C16291D2C122C1A86162C1E8612A3
:100190002C1ECB28AC1529192C16291D2C122C1A13
:1001A00006172C1E06132C1ED628AC15AC192915C3
:0801B000AC1D29118A012C2865
:02400E00423F2F
:00000001FF
