:020000040000FA
:100000008A110A1208280000000000000000000009
:10001000283084005830A0008001840AA00B0C28EE
:10002000103095002730960000308E0000308F0091
:10003000013090000B30970007309F0000308500A2
:100040008316FF30850083120030860083160F3040
:10005000860083120C1D2A280C116400A914A9180B
:100060002915A91C2911A91936282911291D4D283E
:1000700000302B0203194328A00020092B05A006FD
:10008000A01B48284C2831302A02031C48284C2841
:10009000AA0F4B28AB0A291151280030AA000030C2
:1000A000AB0029192916291D2912A9182915A91CDF
:1000B0002911291E5C282911291D732800302D02C1
:1000C00003196928A00020092D05A006A01B6E2891
:1000D000722831302C02031C6E287228AC0F712854
:1000E000AD0A291177280030AC000030AD00291985
:1000F000A915291DA911A9182915A91C2911A91982
:1001000082282911A91229192917291D2913291B08
:100110000616291F0612291F8E28A9162919291724
:10012000291D2913291B0617291F0613291F992882
:10013000A916A91A2915A91E2911A9182915A91C3A
:100140002911A91DA4282911A91329192E14291D23
:100150002E102E1886162E1C86122E1CB028A917BB
:1001600029192E14291D2E102E1886172E1C8613C1
:100170002E1CBB28A917A91B2915A91F29118A0103
:020180002A282B
:02400E00623F0F
:00000001FF
