:1000000022C0189518951895189518951895189553
:100010001895189518951895189518951895189578
:100020001895189518951895189518951895189568
:100030001895189518951895189518951895189558
:10004000189518951895B0E0AEE508E00C93B0E06F
:10005000ADE50FEF0C93B9E0A0E000E020E038E060
:10006000A150B0400C93215030402223C9F73323D4
:10007000B9F7B0E0A4E200E20C93B0E0A5E200E042
:100080000C93B0E0A7E200E00C93B0E0A8E200E03F
:100090000C93B0E0AAE200E00C93B0E0ABE200E029
:1000A0000C93B0E0A0E800E00C93B0E0A1E80AE017
:1000B0000C93B0E0A9E801E60C93B0E0A8E806EAEA
:1000C0000C93B0E0A6E30C9102FFFBCFB0E0A6E3F7
:1000D0000C9104600C93A895B1E0A1E00C91026032
:1000E0000C93B1E0A1E00C91B1E0A1E01C9101FF03
:1000F0001B7F01FD14601C93B1E0A1E00C9103FD96
:1001000005C0B1E0A1E00C910B7F0C93B1E0A1E040
:100110000C9102FF1EC0B1E0A2E00C91B1E0A3E09F
:100120001C9121E330E00217130794F4B1E0A2E040
:100130000C91B1E0A3E01C91039509F413951C9375
:10014000B1E0A2E00C93B1E0A1E00C910B7F0C9325
:1001500008C0B1E0A2E000E00C93B1E0A3E000E051
:100160000C93B1E0A1E00C91B1E0A1E01C9102FF81
:100170001F7E02FD10611C93B1E0A1E00C91B1E083
:10018000A1E01C9101FF1B7F01FD14601C93B1E0F5
:10019000A1E00C9104FF05C0B1E0A1E00C910B7F40
:1001A0000C93B1E0A1E00C9102FF1EC0B1E0A4E00D
:1001B0000C91B1E0A5E01C9121E330E00217130798
:1001C00094F4B1E0A4E00C91B1E0A5E01C9103959A
:1001D00009F413951C93B1E0A4E00C93B1E0A1E005
:1001E0000C910B7F0C9308C0B1E0A4E000E00C93ED
:1001F000B1E0A5E000E00C93B1E0A1E00C910F7D2F
:100200000C93B1E0A1E00C91B1E0A1E01C9102FFE0
:100210001F7B02FD10641C93B1E0A1E00C91B1E0E2
:10022000A1E01C9106FF177F06FD18601C93B1E04A
:10023000A1E00C9106FF05C0B1E0A1E00C910062C5
:100240000C93B1E0A1E00C91B1E0A1E01C9102FFA0
:100250001F7B02FD10641C93B1E0A1E00C91B0E0A3
:10026000A5E21C9106FF1F7D06FD10621C93B1E004
:10027000A1E00C9106FF05C0B1E0A1E00C91006285
:100280000C93B1E0A1E00C91B1E0A1E01C9105FF5D
:0E0290001B7F05FD14601C93E1E6F0E009946D
:00000001FF
