:020000040000FA
:100000008A110A1208280000000000000000000009
:10001000283084005830A0008001840AA00B0C28EE
:1000200050309500C330960000308E0000308F00B5
:10003000013090000B30970007309F0000308500A2
:100040008316FF30850083120030860083167F30D0
:10005000860083120C1D2A280C116400A914A9180B
:100060002915A91C2911A91936282911291D4D283E
:1000700000302B0203194328A00020092B05A006FD
:10008000A01B48284C2831302A02031C48284C2841
:10009000AA0F4B28AB0A291151280030AA000030C2
:1000A000AB0029192916291D2912A9182915A91CDF
:1000B0002911291E5C282911291D732800302D02C1
:1000C00003196928A00020092D05A006A01B6E2891
:1000D000722831302C02031C6E287228AC0F712854
:1000E000AD0A291177280030AC000030AD00A9120C
:1000F00029192917291D2913291BA915291FA911F8
:10010000291F8328A91629192917291D2913291BF5
:100110008617291F8613291F8E28A916A91A2915A3
:08012000A91E29118A012A28F9
:02400E00623F0F
:00000001FF
