:1000000022C0189518951895189518951895189553
:100010001895189518951895189518951895189578
:100020001895189518951895189518951895189568
:100030001895189518951895189518951895189558
:10004000189518951895B0E0AEE504E00C93B0E073
:10005000ADE50FE50C93B4E0A0E600E020E034E06D
:10006000A150B0400C93215030402223C9F73323D4
:10007000B9F7B0E0A0E400E00C93B0E0A9E209E138
:100080000C93B0E0AAE208E10C93B0E0A7E300E033
:100090000C93B0E0A8E300E00C93B0E0A4E300E030
:1000A0000C93B0E0A5E300E00C93B0E0A1E30AE11B
:1000B0000C93B0E0A2E304E00C93B0E0AFE400E006
:1000C0000C93B0E0AEE409E00C93B0E0ABE40CE9D3
:1000D0000C93B0E0AAE40EE30C93B0E0A9E500E1D4
:1000E0000C93B0E0A8E50C9104FFFBCFB0E0A8E5CD
:1000F0000C9100610C93A895B0E0A1E60C91026010
:100100000C93B0E0A1E60C91B0E0A1E61C9101FFD8
:100110001B7F01FD14601C93B0E0A0E30C9102FD75
:1001200005C0B0E0A1E60C910B7F0C93B0E0A1E616
:100130000C9102FF1EC0B0E0A2E60C91B0E0A3E675
:100140001C912DE130E00217130794F4B0E0A2E611
:100150000C91B0E0A3E61C91039509F413951C9350
:10016000B0E0A2E60C93B0E0A1E60C910B7F0C93FB
:1001700008C0B0E0A2E600E00C93B0E0A3E600E027
:100180000C93B0E0A1E60C91B0E0A2E31C9102FF59
:10019000177F02FD18601C93B0E0A1E60C91B0E05F
:1001A000A1E61C9101FF1B7F01FD14601C93B0E0D0
:1001B000A2E30C9103FD05C0B0E0A1E60C910B7F1A
:1001C0000C93B0E0A1E60C9102FF1EC0B0E0A4E6E3
:1001D0000C91B0E0A5E61C912DE130E00217130769
:1001E00094F4B0E0A4E60C91B0E0A5E61C91039570
:1001F00009F413951C93B0E0A4E60C93B0E0A1E6DB
:100200000C910B7F0C9308C0B0E0A4E600E00C93C7
:10021000B0E0A5E600E00C93B0E0A1E60C91B0E000
:10022000A2E31C9102FF1F7E02FD10611C93B0E04F
:10023000A1E60C91B0E0A1E61C9101FF1B7F01FD3E
:1002400014601C93B0E0A1E60C9101FD06C0B0E083
:10025000A1E60C9102600C930BC0B0E0A1E60C91FA
:10026000B0E0A1E61C9102FF1D7F02FD12601C930D
:10027000B0E0A1E60C91B0E0A1E61C9101FF1B7F6C
:1002800001FD14601C93B0E0A1E60C9102FF19C0BF
:10029000B0E0A1E60C910B7F0C93B0E0ABE20C91C7
:1002A00007FF0FC0B0E0A1E60C9104600C93B0E032
:1002B000ACE20C91B0E0A6E60C93B0E0A7E600E05B
:1002C0000C93B0E0A1E60C91B0E0A1E61C9101FF17
:1002D0001B7F01FD14601C93B0E0A2E30C9104FDB0
:1002E00005C0B0E0A1E60C910B7F0C93B0E0A1E655
:1002F0000C9102FF0DC0B0E0A1E60C9103FD08C017
:10030000B0E0A8E600E00C93B0E0A9E600E00C93B2
:10031000B0E0A1E60C91B0E0A1E61C9102FF177FCE
:1003200002FD18601C93B0E0A8E60C91B0E0AAE6CC
:100330000C93B0E0A9E60C91B0E0ABE60C93B0E012
:10034000A8E60C91B0E0A9E61C912CE030E0021781
:1003500013070CF408C0B0E0AAE60FEF0C93B0E06E
:10036000ABE60FEF0C93B0E0A1E60C910F7E0C937F
:10037000B0E0A1E60C9104FF06C0B0E0ACE60C9141
:10038000B0E0ACE20C93B0E0A1E60C910F7E0C93D0
:10039000B0E0ABE20C9105FD05C0B0E0A1E60C9128
:1003A00000610C93B0E0A1E60C9104FF08C0B0E03E
:1003B000AAE60FEF0C93B0E0ABE60FEF0C93B0E0C2
:1003C000ACE600E00C93B0E0ADE600E00C93B0E0EA
:1003D000ACE60C91B0E0ADE61C91B0E0AAE62C9141
:1003E000B0E0ABE63C910217130741F4B0E0AEE693
:1003F00006E70C93B0E0AFE600E00C93B0E0ACE6AB
:1004000001E00C93B0E0ADE600E00C93B0E0ACE6A8
:100410000C91B0E0ADE61C91B0E0AAE62C91B0E002
:10042000ABE63C910217130741F4B0E0AEE601E6FB
:100430000C93B0E0AFE600E00C93B0E0ACE602E075
:100440000C93B0E0ADE600E00C93B0E0ACE60C91AC
:10045000B0E0ADE61C91B0E0AAE62C91B0E0ABE6CE
:100460003C910217130741F4B0E0AEE60CE60C93A2
:10047000B0E0AFE600E00C93B0E0ACE603E00C9334
:10048000B0E0ADE600E00C93B0E0ACE60C91B0E07B
:10049000ADE61C91B0E0AAE62C91B0E0ABE63C9151
:1004A0000217130741F4B0E0AEE605E70C93B0E0A5
:1004B000AFE600E00C93B0E0ACE604E00C93B0E0F3
:1004C000ADE600E00C93B0E0ACE60C91B0E0ADE638
:1004D0001C91B0E0AAE62C91B0E0ABE63C9102178B
:1004E000130741F4B0E0AEE605E60C93B0E0AFE6EA
:1004F00000E00C93B0E0ACE605E00C93B0E0ADE6B4
:1005000000E00C93B0E0ACE60C91B0E0ADE61C91DD
:10051000B0E0AAE62C91B0E0ABE63C9102171307DD
:1005200041F4B0E0AEE60AE30C93B0E0AFE600E0E1
:100530000C93B0E0ACE606E00C93B0E0ADE600E072
:100540000C93B0E0ACE60C91B0E0ADE61C91B0E0ED
:10055000AAE62C91B0E0ABE63C910217130741F4F8
:10056000B0E0AEE600E20C93B0E0AFE600E00C9342
:10057000B0E0ACE607E00C93B0E0ADE600E00C9331
:10058000B0E0A1E60C910F7E0C93B0E0ACE60C91CC
:10059000B0E0ADE61C91B0E0AAE62C91B0E0ABE68D
:1005A0003C910217130729F4B0E0A1E60C91006119
:1005B0000C93B0E0A1E60C9104FF95C0B0E0A6E674
:1005C0000C91B0E0A0E70C93B0E0A7E60C91B0E08E
:1005D000A1E70C93B0E0A1E60C9100620C93B0E0AF
:1005E000ACE604E60C93B0E0ADE600E00C93B0E0BE
:1005F000ACE62C91B0E0ADE63C91B0E0A0E70C9108
:10060000B0E0A1E71C91E4E4F5E00995B0E0AEE6C6
:100610000C93B0E0AFE61C93B0E0ACE62C91B0E0F8
:10062000ADE63C91B0E0AEE60C91B0E0AFE61C91D7
:10063000E3E3F5E00995B0E0ACE62C93B0E0ADE67D
:100640003C93B0E0A0E72C91B0E0A1E73C91B0E092
:10065000ACE60C91B0E0ADE61C91201B310BB0E094
:10066000A0E72C93B0E0A1E73C93B0E0ACE600E358
:100670000C93B0E0ADE600E00C93B0E0AEE62C9158
:10068000B0E0AFE63C91B0E0ACE60C91B0E0ADE696
:100690001C91200F311FB0E0AEE62C93B0E0AFE626
:1006A0003C93B0E0ACE60C91B0E0ADE61C91B0E05C
:1006B000AEE62C91B0E0AFE63C910217130771F45F
:1006C000B0E0A1E60C9105FF08C0B0E0AEE600E2A4
:1006D0000C93B0E0AFE600E00C9305C0B0E0A1E6FB
:1006E0000C910F7D0C93B0E0ACE608E00C93B0E009
:1006F000ADE600E00C93B0E0A1E60C910F7E0C9308
:10070000B0E0ACE60C91B0E0ADE61C91B0E0AAE63A
:100710002C91B0E0ABE63C910217130729F4B0E04E
:10072000A1E60C9100610C93B0E0A1E60C9104FFEE
:1007300084C0B0E0ACE60AE00C93B0E0ADE600E0C7
:100740000C93B0E0ACE62C91B0E0ADE63C91B0E0AB
:10075000A0E70C91B0E0A1E71C91E4E4F5E0099575
:10076000B0E0AEE60C93B0E0AFE61C93B0E0ACE6D0
:100770002C91B0E0ADE63C91B0E0AEE60C91B0E07B
:10078000AFE61C91E3E3F5E00995B0E0ACE62C930D
:10079000B0E0ADE63C93B0E0A0E72C91B0E0A1E77B
:1007A0003C91B0E0ACE60C91B0E0ADE61C91201BB2
:1007B000310BB0E0A0E72C93B0E0A1E73C93B0E0B0
:1007C000ACE600E30C93B0E0ADE600E00C93B0E0E3
:1007D000AEE62C91B0E0AFE63C91B0E0ACE60C9117
:1007E000B0E0ADE61C91200F311FB0E0AEE62C93D7
:1007F000B0E0AFE63C93B0E0ACE60C91B0E0ADE623
:100800001C91B0E0AEE62C91B0E0AFE63C9102174F
:10081000130771F4B0E0A1E60C9105FF08C0B0E049
:10082000AEE600E20C93B0E0AFE600E00C9305C04A
:10083000B0E0A1E60C910F7D0C93B0E0ACE609E0CE
:100840000C93B0E0ADE600E00C93B0E0A1E60C91B3
:100850000F7E0C93B0E0ACE60C91B0E0ADE61C91DD
:10086000B0E0AAE62C91B0E0ABE63C91021713078A
:1008700029F4B0E0A1E60C9100610C93B0E0A1E690
:100880000C9104FF62C0B0E0ACE601E00C93B0E074
:10089000ADE600E00C93B0E0ACE62C91B0E0ADE644
:1008A0003C91B0E0A0E70C91B0E0A1E71C91E4E43A
:1008B000F5E00995B0E0AEE60C93B0E0AFE61C932E
:1008C000B0E0ACE62C91B0E0ADE63C91B0E0AEE635
:1008D0000C91B0E0AFE61C91E3E3F5E00995B0E0E0
:1008E000ACE62C93B0E0ADE63C93B0E0A0E72C91F1
:1008F000B0E0A1E73C91B0E0ACE60C91B0E0ADE631
:100900001C91201B310BB0E0A0E72C93B0E0A1E7D5
:100910003C93B0E0ACE600E30C93B0E0ADE600E061
:100920000C93B0E0AEE62C91B0E0AFE63C91B0E0C5
:10093000ACE60C91B0E0ADE61C91200F311FB0E0A9
:10094000AEE62C93B0E0AFE63C93B0E0ACE60AE054
:100950000C93B0E0ADE600E00C93B0E0ACE60C9197
:10096000B0E0ADE61C91B0E0AAE62C91B0E0ABE6B9
:100970003C910217130741F4B0E0AEE60DE00C9392
:10098000B0E0AFE600E00C93B0E0ACE60BE00C9317
:10099000B0E0ADE600E00C93B0E0ACE60C91B0E066
:1009A000ADE61C91B0E0AAE62C91B0E0ABE63C913C
:1009B0000217130741F4B0E0AEE60AE00C93B0E092
:1009C000AFE600E00C93B0E0AAE60C91B0E0ABE635
:1009D0001C9120E030E0021713070CF42CC0B0E0AB
:1009E000A1E60C9100610C93B0E0A1E60C9104FF2C
:1009F00006C0B0E0AEE60C91B0E0ACE20C93B0E023
:100A0000A1E60C910F7E0C93B0E0ABE20C9105FDDA
:100A100005C0B0E0A1E60C9100610C93B0E0A8E63F
:100A20000C91B0E0A9E61C91039509F413951C9371
:100A3000B0E0A8E60C93B0E0A1E60C910B7F0C931C
:100A4000B0E0A8E60C91B0E0A9E61C912CE030E003
:100A5000021713072CF4B0E0A1E60C9104600C938C
:100A6000E1E7F0E00994551B441B60E110F4400FEE
:100A7000511F20FD401B20FD510B55954795379583
:100A800027956A9599F70895D12ED32617FF04C0AC
:100A9000109500950F5F1F4F37FF04C030952095CC
:100AA0002F5F3F4FEE24FF1841E1001F111F4A95B1
:100AB00039F4D7FE04C0109500950F5F1F4F0895BD
:100AC000EE1CFF1CE21AF30A20F4E20EF31E8894D7
:060AD000ECCF0894EACF10
:00000001FF
