:020000040000FA
:100000008A110A1208280000000000000000000009
:10001000283084005830A0008001840AA00B0C28EE
:10002000103095002730960000308E0000308F0091
:10003000013090000B309700831686309F008312AA
:10004000003085008316FF30850083120030860063
:100050008316FF3086008312003087008316FF303E
:1000600087008312003088008316FE3088008312D8
:1000700000308900831607308900831283161930F7
:1000800099008312831620309800831290309800D4
:100090000C1D48280C116400A914A9182915A91CC5
:1000A0002911291D632829118C1E63281A08AA000A
:1000B000AB01291598185F2818195F2863281A08BA
:1000C0001A08181218162919A915291DA911A918F5
:1000D0002915A91C29114130AC000030AD002A08B7
:1000E0002C02031D78282B082D02031D782879285F
:1000F0002911291D7C280814A9182915A91C2911C2
:100100004230AC000030AD002A082C02031D8D28BF
:100110002B082D02031D8D288E282911291D9128B9
:100120000810A9182915A91C2911A91998282911FD
:1001300029192916291D2912A91E9F282911291AB2
:10014000A916291EA912291DAB28291BAB2800308E
:10015000AE000030AF0029192917291D29132E08D8
:10016000B0002F08B10000302F020319BE28A000F4
:1001700020092F05A006A01BC328C4280C302E027E
:10018000031CC328C428C828FF30B000FF30B100CA
:100190002912291ECD283208990029128316981891
:1001A000D328831229168312291EDA28FF30B000C3
:1001B000FF30B1000030B2000030B300320830022E
:1001C000031DEA2833083102031DEA287630AC000B
:1001D0000030AD000130B2000030B3003208300210
:1001E000031DFA2833083102031DFA286130AC00E0
:1001F0000030AD000230B2000030B30032083002EF
:10020000031D0A2933083102031D0A296C30AC0092
:100210000030AD000330B2000030B30032083002CD
:10022000031D1A2933083102031D1A297530AC0049
:100230000030AD000430B2000030B30032083002AC
:10024000031D2A2933083102031D2A296530AC0019
:100250000030AD000530B2000030B300320830028B
:10026000031D3A2933083102031D3A293A30AC0004
:100270000030AD000630B2000030B300320830026A
:10028000031D4A2933083102031D4A292030AC00DE
:100290000030AD000730B2000030B3002912320840
:1002A0003002031D582933083102031D582929162D
:1002B000291EAB292A08B4002B08B500A917643001
:1002C000B2000030B3003408A0003508A1003208A5
:1002D000A2003308A30002308A00BE2201308A0047
:1002E0002008AC002108AD003208A0003308A100AE
:1002F0002C08A2002D08A30002308A00A72201309A
:100300008A002208B2002308B30032083402B40085
:100310003508B500031CB5033308B5023030B20010
:100320000030B3002C083207AC002D08AD000318D4
:10033000AD0A3308AD0732082C02031DAA29330881
:100340002D02031DAA29A91FA9292030AC000030C5
:10035000AD00AB29A9130830B2000030B300291258
:1003600032083002031DB92933083102031DB929AF
:100370002916291E072A0A30B2000030B3003408BB
:10038000A0003508A1003208A2003308A300023003
:100390008A00BE2201308A002008AC002108AD008E
:1003A0003208A0003308A1002C08A2002D08A300E9
:1003B00002308A00A72201308A002208B2002308F6
:1003C000B30032083402B4003508B500031CB5038D
:1003D0003308B5023030B2000030B3002C083207C9
:1003E000AC002D08AD000318AD0A3308AD07320884
:1003F0002C02031D062A33082D02031D062AA91FFD
:10040000052A2030AC000030AD00072AA9130930BE
:10041000B2000030B300291232083002031D152A41
:1004200033083102031D152A2916291E532A0130CB
:10043000B2000030B3003408A0003508A100320833
:10044000A2003308A30002308A00BE2202308A00D4
:100450002008AC002108AD003208A0003308A1003C
:100460002C08A2002D08A30002308A00A722023027
:100470008A002208B2002308B30032083402B40014
:100480003508B500031CB5033308B5023030B2009F
:100490000030B3002C083207AC002D08AD00031863
:1004A000AD0A3308AD070A30B2000030B30032089D
:1004B0003002031D632A33083102031D632A0D3005
:1004C000AC000030AD000B30B2000030B300320899
:1004D0003002031D732A33083102031D732A0A30C8
:1004E000AC000030AD000030310203197E2AA000BC
:1004F00020093105A006A01B832A842A003030027F
:10050000031C832A842A932A2916291E892A2C0847
:1005100099002912831698188F2A8312291683129C
:10052000AE0F932AAF0A291100302F0203199F2A18
:10053000A00020092F05A006A01BA42AA52A0C3084
:100540002E02031CA42AA52A29158A014828A501E0
:10055000A4010310A30CA20C1030A600031CB62AA1
:100560002008A4070318A50A2108A5070310A50C55
:10057000A40CA30CA20CA60BAE2A0800210823068B
:10058000A700A31FC82AA209A309A20A0319A30A44
:10059000A11FCF2AA009A109A00A0319A10AA50138
:1005A000A40103101130A600A00DA10DA60303198C
:1005B000ED2AA40DA50D2208A402031CA5032308FF
:1005C000A502A51FEB2A2208A4070318A50A2308E1
:1005D000A5070310D42A0314D42AA71F0800A009D2
:0A05E000A109A00A0319A10A0800EE
:02400E00723FFF
:00000001FF
