:020000040000FA
:100000008A110A1208280000000000000000000009
:10001000283084005830A0008001840AA00B0C28EE
:1000200050309500C330960000308E0000308F00B5
:10003000013090000B30970007309F0000308500A2
:100040008316FF3085008312003086008316EF3060
:10005000860083120C1D2A280C116400A914A9180B
:100060002915A91C2911861C36282911A91129191D
:100070002916291D291206183E282912291E412851
:10008000A91529192916291D2912061A48282912E5
:10009000291E4B28A915A9192915A91D29112919A6
:0A00A0000616291D06128A012A28FF
:02400E00623F0F
:00000001FF
