:020000040000FA
:100000008A110A1208280000000000000000000009
:10001000283084005830A0008001840AA00B0C28EE
:10002000103095002730960000308E0000308F0091
:10003000013090000B309700831686309F008312AA
:10004000003085008316FF30850083120030860063
:100050008316FD3086008312003087008316FF3040
:1000600087008312003088008316FF3088008312D7
:100070000030890083160730890083120C1D3E284A
:100080000C116400A914A9182915A91C2911061C12
:100090004A282911291D612800302B0203195728ED
:1000A000A00020092B05A006A01B5C286028633057
:1000B0002A02031C5C286028AA0F5F28AB0A2911BA
:1000C00065280030AA000030AB0029198614291DCC
:0600D00086108A013E28A3
:02400E00723FFF
:00000001FF
