:1000000022C0189518951895189518951895189553
:100010001895189518951895189518951895189578
:100020001895189518951895189518951895189568
:100030001895189518951895189518951895189558
:10004000189518951895B0E0AEE504E00C93B0E073
:10005000ADE50FE50C93B4E0A0E600E020E034E06D
:10006000A150B0400C93215030402223C9F73323D4
:10007000B9F7B0E0A0E400E00C93B0E0A9E20FEC27
:100080000C93B0E0AAE208E10C93B0E0A7E300E033
:100090000C93B0E0A8E300E00C93B0E0A4E300E030
:1000A0000C93B0E0A5E300E00C93B0E0A1E302E420
:1000B0000C93B0E0A2E300E20C93B0E0AFE400E008
:1000C0000C93B0E0AEE40AE00C93B0E0ABE407E2DE
:1000D0000C93B0E0AAE40EE00C93B0E0A9E500E1D7
:1000E0000C93B0E0A8E50C9104FFFBCFB0E0A8E5CD
:1000F0000C9100610C93A895B0E0A1E60C91026010
:100100000C93B0E0A1E60C91B0E0A1E61C9101FFD8
:100110001B7F01FD14601C93B0E0A0E30C9105FD72
:1001200005C0B0E0A1E60C910B7F0C93B0E0A1E616
:100130000C91B0E0A2E31C9102FF1F7B02FD106452
:100140001C93B0E0A1E60C91B0E0A1E61C9101FF88
:100150001B7F01FD14601C93B0E0A1E60C9102FF2F
:1001600006C0B0E0A2E60C91B0E0ACE20C93B0E0C7
:10017000A1E60C910B7F0C93B0E0ABE20C9105FD76
:1001800005C0B0E0A1E60C9104600C93E1E7F0E05B
:020190000994D0
:00000001FF
