:020000040000FA
:100000008A110A1208280000000000000000000009
:10001000283084005830A0008001840AA00B0C28EE
:10002000103095002730960000308E0000308F0091
:10003000013090000B30970007309F0000308500A2
:100040008316FF30850083120030860083168F30C0
:10005000860083120C1D2A280C116400A914A9180B
:100060002915A91C2911A91129192916291D291297
:1000700006183B282912291E3E28A91529192916D8
:10008000291D2912A91A45282912291E4828A9150F
:10009000A9192915A91D291186184F2829110619F2
:1000A0005228291129132919A917291DA913A91B98
:1000B000A916A91FA912A91F5E2829172919A9176E
:1000C000291DA913A91B0616A91F0612A91F692815
:1000D0002917291B2915291F2911A9182915A91C18
:1000E0002911A91A74282911291D8B2801302B02E6
:1000F00003198128A00020092B05A006A01B862833
:100100008A28F3302A02031C86288A28AA0F892805
:10011000AB0A29118F280030AA000030AB00291942
:100120002C14291D2C10A9182915A91C2911A91A4C
:100130009A2829112C1C9D28291129198616291D58
:100140008612A9182915A91C2911A91AA82829114C
:100150002C18AB28291129190617291D06138A0105
:020160002A284B
:02400E00623F0F
:00000001FF
