:020000040000FA
:100000008A110A1208280000000000000000000009
:10001000283084005830A0008001840AA00B0C28EE
:10002000103095002730960000308E0000308F0091
:10003000013090000B30970007309F0000308500A2
:100040008316FF30850083120030860083160F3040
:10005000860083120C1D2A280C116400A914A9180B
:100060002915A91C2911A91D36282911291D4D283A
:1000700000302B0203194328A00020092B05A006FD
:10008000A01B48284C2831302A02031C48284C2841
:10009000AA0F4B28AB0A291151280030AA000030C2
:1000A000AB00291A57283130AC000030AD002916BA
:1000B00029196F2800302D0203196528A000200996
:1000C0002D05A006A01B6A286E2831302C02031CC7
:1000D0006A286E28AC0F6D28AD0A291573280030E8
:1000E000AC000030AD00A91229192917291D2913C8
:1000F000291BA915291FA911291F7F28A91629190C
:100100002917291D2913291F9F28A91B9F28AE0FD6
:100110008A28AF0A00302F0203199528A000200971
:100120002F05A006A01B9A289B2804302E02031C32
:100130009A289B289F280030AE000030AF00291B72
:10014000A917291FA913291FA628A916A91A291515
:10015000A91E2911A9182915A91C29110030B000C0
:100160000030B1002E083002031DBB282F083102D9
:10017000031DBB28BC28291129190616291D0612A2
:10018000A9182915A91C29110130B0000030B100AF
:100190002E083002031DD1282F083102031DD1285B
:1001A000D228291129198616291D8612A918291560
:1001B000A91C29110230B0000030B1002E08300215
:1001C000031DE7282F083102031DE728E82829111D
:1001D00029190617291D0613A9182915A91C291163
:1001E0000330B0000030B1002E083002031DFD289E
:1001F0002F083102031DFD28FE2829112919861711
:08020000291D86138A012A283A
:02400E00623F0F
:00000001FF
