:1000000022C0189518951895189518951895189553
:100010001895189518951895189518951895189578
:100020001895189518951895189518951895189568
:100030001895189518951895189518951895189558
:10004000189518951895B0E0AEE504E00C93B0E073
:10005000ADE50FE50C93B4E0A0E600E020E034E06D
:10006000A150B0400C93215030402223C9F73323D4
:10007000B9F7B0E0A7E30FE00C93B0E0A8E300E02D
:100080000C93B0E0A4E300E00C93B0E0A5E300E043
:100090000C93B0E0A1E300E00C93B0E0A2E300E039
:1000A0000C93B0E0AFE400E00C93B0E0AEE409E004
:1000B0000C93B0E0ABE40CE90C93B0E0AAE40EE3DF
:1000C0000C93B0E0A9E500E10C93B0E0A8E50C9139
:1000D00004FFFBCFB0E0A8E50C9100610C93A8955C
:1000E000B0E0A1E60C9102600C93B0E0A1E60C91A7
:1000F000B0E0A1E61C9101FF1B7F01FD14601C9381
:10010000B0E0A1E60C9103FF05C0B0E0A1E60C91C0
:100110000B7F0C93B0E0A1E60C9102FF1EC0B0E093
:10012000A2E60C91B0E0A3E61C9121E330E00217B7
:10013000130794F4B0E0A2E60C91B0E0A3E61C91A2
:10014000039509F413951C93B0E0A2E60C93B0E07C
:10015000A1E60C910B7F0C9308C0B0E0A2E600E092
:100160000C93B0E0A3E600E00C93B0E0A1E60C91A4
:1001700004FD08C0B0E0A4E601E30C93B0E0A5E6FE
:1001800000E00C93B0E0A1E60C9100610C93B0E0AC
:10019000A1E60C9102FD1EC0B0E0A4E60C91B0E017
:1001A000A5E61C9121E330E00217130794F4B0E0B8
:1001B000A4E60C91B0E0A5E61C91039509F4139513
:1001C0001C93B0E0A4E60C93B0E0A1E60C910460AF
:1001D0000C9308C0B0E0A4E600E00C93B0E0A5E604
:1001E00000E00C93B0E0A1E60C910F7D0C93B0E021
:1001F000A1E60C91B0E0A1E61C9102FF1F7B02FD7D
:1002000010641C93B0E0A1E60C91B0E0A1E61C9153
:1002100006FF177F06FD18601C93B0E0A1E60C9165
:1002200006FF05C0B0E0A1E60C9100620C93B0E0BF
:10023000A1E60C91B0E0A1E61C9102FF1F7B02FD3C
:1002400010641C93B0E0A1E60C9106FF26C0B0E05C
:10025000A1E60C9107FD21C0B0E0A6E60C91B0E04C
:10026000A7E61C91039509F413951C93B0E0A6E64C
:100270000C93B0E0A6E60C91B0E0A7E61C9124E058
:1002800030E0021713070CF408C0B0E0A6E600E067
:100290000C93B0E0A7E600E00C93B0E0A1E60C916F
:1002A000B0E0A1E61C9106FF1F7706FD10681C93C5
:1002B000B0E0A1E60C9106FF05C0B0E0A1E60C910C
:1002C00000620C93B0E0A1E60C91B0E0A1E61C91B5
:1002D00005FF1B7F05FD14601C93B0E0A1E60C91A7
:1002E000B0E0A1E61C9101FF1B7F01FD14601C938F
:1002F000B0E0A8E600E00C93B0E0A9E600E00C93C3
:10030000B0E0A6E60C91B0E0A7E61C91B0E0A8E64C
:100310002C91B0E0A9E63C910217130709F405C03F
:10032000B0E0A1E60C910B7F0C93B0E0A1E60C913C
:10033000B0E0A8E31C9102FF1E7F02FD11601C9338
:10034000B0E0A1E60C91B0E0A1E61C9101FF1B7F9B
:1003500001FD14601C93B0E0A8E601E00C93B0E04E
:10036000A9E600E00C93B0E0A6E60C91B0E0A7E6A9
:100370001C91B0E0A8E62C91B0E0A9E63C910217F0
:10038000130709F405C0B0E0A1E60C910B7F0C93B4
:10039000B0E0A1E60C91B0E0A8E31C9102FF1D7F44
:1003A00002FD12601C93B0E0A1E60C91B0E0A1E662
:1003B0001C9101FF1B7F01FD14601C93B0E0A8E6B7
:1003C00002E00C93B0E0A9E600E00C93B0E0A6E6F2
:1003D0000C91B0E0A7E61C91B0E0A8E62C91B0E04B
:1003E000A9E63C910217130709F405C0B0E0A1E6A5
:1003F0000C910B7F0C93B0E0A1E60C91B0E0A8E368
:100400001C9102FF1B7F02FD14601C93B0E0A1E66B
:100410000C91B0E0A1E61C9101FF1B7F01FD14606F
:100420001C93B0E0A8E603E00C93B0E0A9E600E07E
:100430000C93B0E0A6E60C91B0E0A7E61C91B0E00A
:10044000A8E62C91B0E0A9E63C910217130709F445
:1004500005C0B0E0A1E60C910B7F0C93B0E0A1E6E3
:100460000C91B0E0A8E31C9102FF177F02FD186019
:080470001C93E5E6F0E009949D
:00000001FF
