:020000040000FA
:100000008A110A1208280000000000000000000009
:10001000283084005830A0008001840AA00B0C28EE
:10002000103095002730960000308E0000308F0091
:10003000013090000B30970007309F0000308500A2
:100040008316FF30850083120030860083168F30C0
:10005000860083120C1D2A280C116400A914A9180B
:100060002915A91C2911A91D36282911291D4D283A
:1000700000302B0203194328A00020092B05A006FD
:10008000A01B48284C2831302A02031C48284C2841
:10009000AA0F4B28AB0A291151280030AA000030C2
:1000A000AB0029122919A916291DA912A91A291765
:1000B000A91E2913A91E5D2829162919A916291D6B
:1000C000A912A91A0616A91E0612A91E6828291621
:1000D000291A2915291E2911A9182915A91C291120
:1000E000291F73282911291D8A2800302D02031980
:1000F0008028A00020092D05A006A01B852889289E
:1001000031302C02031C85288928AC0F8828AD0AC1
:1001100029118E280030AC000030AD00A913291938
:100120002E14291D2E102E18AE142E1CAE102E1CAF
:100130009A28A91729192E14291D2E102E18861653
:100140002E1C86122E1CA528A917A91B2915A91F2C
:100150002911A9182915A91C2911AE1CB02829118B
:10016000291DC728003030020319BD28A00020092E
:100170003005A006A01BC228C62831302F02031C60
:10018000C228C628AF0FC528B00A2911CB280030D5
:10019000AF000030B0002E112919AE15291DAE1187
:1001A000AE19A915AE1DA911AE1DD7282E152919F6
:1001B000AE15291DAE11AE190617AE1D0613AE1DE4
:1001C000E2282E152E1929152E1D29118A012A28FB
:02400E00623F0F
:00000001FF
